:100000000C949C010C94B9010C94B9010C94B901A5
:100010000C94B9010C94B9010C94B9010C94B90178
:100020000C94B9010C94B9010C94D01C0C94A41D2F
:100030000C9406180C94B9010C94B9010C94B901F4
:100040000C94B9010C94B9010C94B9010C94B90148
:100050000C94B9010C947E180C94B9010C94B9015C
:100060000C94B9010C94B9010C94B9010C94B90128
:100070000C94B9010C94B9010C94B9010C94B90118
:100080000C94B9010C94B9010C94B9010C94B90108
:100090000C94B9010C94B9010C94B9010C94B901F8
:1000A0000C94B9010C94B9010C94B9012B00140003
:1000B0001A000800150017001C0018000C001200A0
:1000C00013002A00290004001600070009000A0096
:1000D0000B000D000E000F0033003400E1001D0086
:1000E0001B00060019000500110010003600370043
:1000F00038002800E0002352E300E20021522C00E7
:100100002C0022525000510052004F00000000000D
:100110004000410042004500000024002500260068
:1001200067002A00000000003D003E003F00440040
:1001300000002100220023005600570000000000AC
:100140003A003B003C00430000001E001F0020005E
:100150002D022800000000000000000000002C001C
:100160002C00360027003700550054000000000026
:1001700000002F003000360237022402250235002D
:1001800067002A0000000000000026022702380055
:100190003100210222022302560057000000000015
:1001A00000002F023002000000001E021F02200289
:1001B0002D022800000000000000000000002C00BC
:1001C0002C0000005000510052004F000E0343006D
:1001D0006F006E0074007200610000000E034300A7
:1001E00061007200740065006C00000004030904E3
:1001F00009023B00020100A0FA090400000103010A
:1002000001000921110100012244000705810308B2
:10021000000109040100010300000009211101008F
:100220000122B6000705820320000112010002002E
:10023000000008544301000100010200010501090A
:1002400002A10185020901A100050919012908156A
:100250000025019508750181020501093009311554
:1002600081257F95027508810609381581257F95BE
:100270000175088106050C0A38021581257F950154
:1002800075088106C0C005010980A1018503190117
:100290002AB700150126B700950175108100C00529
:1002A0000C0901A101850419012AA002150126A04B
:1002B00002950175108100C005010906A10185069E
:1002C000050719E029E71500250195087501810248
:1002D0000507190029EF1500250195F07501810228
:1002E0000508190129059505750191029501750308
:1002F0009101C005010906A101050719E029E715CB
:100300000025019508750181029501750881010597
:1003100007190029FF150026FF00950675088100C2
:10032000050819012905150025019505750191029A
:10033000950175039101C00011241FBECFEFDAE0D3
:10034000DEBFCDBF11E0A0E0B1E0E2EBF0E402C01F
:1003500005900D92AC39B107D9F722E0ACE9B1E0D4
:1003600001C01D92AF3AB207E1F70E9451110C94FF
:1003700018200C9400008330B8F46430A8F44C309A
:1003800098F450E09CE0699F400D511D1124FA0142
:1003900090E3899FE00DF11D1124EE0FFF1FE4553E
:1003A000FF4F85919491089581E090E008950E9417
:1003B000BB01089581E008950E94DA0108950E942A
:1003C000DA01089581E008950E94DA0108950E94FB
:1003D000DA0108950E94E7010895089508950E94A2
:1003E000ED01089508950895A6E0B0E0EAEFF1E088
:1003F0000C94741F49835A839E833091A301898191
:100400009A8131111AC03E81332399F0222389F059
:100410000E94CC07182F682F89819A810E94A80713
:1004200069817A81812F0E94EE0E2696E3E00C947A
:10043000901F0E94BA07182FF3CF0E94CC07698142
:100440007A81F1CFFC01262F408151816281738135
:10045000848195810E94F4010895CF93DF93EC018C
:1004600061E00E942202BE010E94DC01882359F053
:1004700061E0CE010E942202BE010E94DF01817074
:10048000DF91CF91089580E0FACF0F931F93CF9320
:10049000DF93EC0160E00E9422028C01BE010E9409
:1004A000EE01BE01C8010E94EF01DF91CF911F91C3
:1004B0000F91089521E030E0A90102C0440F551FBB
:1004C0008A95E2F7CA010E94CA060895CF93C82F01
:1004D00081E090E00C2E02C0880F991F0A94E2F789
:1004E0000E94380C8C2F0E945A02CF91089581E00F
:1004F00008950E94770208950E9477020895CF938D
:10050000C82F0E947D068C2F0E9479028C2F0E949A
:100510007C022FEF84E39CE0215080409040E1F783
:1005200000C00000CF91089581E00E947F020E94E8
:10053000A218089580E00E947F020E94B3180895D7
:100540000F931F93CF93DF938C0161E00E942202EF
:10055000EC01B8010E94E401811106C080E0DF9146
:10056000CF911F910F910895B801CE010E94EA0129
:100570008823A1F3B801CE010E947A15882371F374
:10058000B801CE010E94B611882341F3B801CE0113
:100590000E948C11882311F3B801CE010E94F20F42
:1005A0008823E1F2F8018581882361F0C330FCE7FC
:1005B000DF07E9F058F4C115ECE7DE07A9F0C13018
:1005C000DC47B9F0C8010E94E201C9CFCB358CE706
:1005D000D807A9F0CC35ECE7DE0771F0CA35DC4767
:1005E00089F70E94130CEECF0E949402B7CF0E94AD
:1005F0001B0C0E949A02B2CF0E94090CE3CF0E940A
:10060000170CE0CF0E94F2010E94D8170E94260327
:1006100008950E942A030E94F3010E94DD170895A5
:1006200081E008950895CF93DF93D82F0E9410039F
:10063000C82F882319F08D2F0E9412038C2FDF9171
:10064000CF91089508950E941303089580E00E94B9
:10065000230308950E94C3150E9423030895CF9396
:100660000E94C315C82F80919E018C1779F0C0930A
:100670009E010E94721860939F017093A001809365
:10068000A1019093A2018C2F0E942303CF91089582
:10069000ADE0B0E0EEE4F3E00C94751F48875987B5
:1006A0006A877B878C879D8791110E94190B1F8217
:1006B00086E0FE013896DE01119601900D928A9532
:1006C000E1F78D8181110DC029813A814B815C81D7
:1006D0006D817E818F810E94630A2D96E2E00C94E9
:1006E000911FCE0101960E942D028111EDCFF5CF11
:1006F000FC012481213021F4808191810E94FE0738
:100700000895662329F00E9417130E94EA130895A2
:100710000E947113FACFCF93C82F882399F08CEFE2
:100720008C0F813A88F48C2F0E946316882329F05D
:100730008C2F0E9409170E94AD0B8C2F0E94EF1680
:100740000E94AD0BCF91089580E28C0F883048F461
:10075000C77081E001C0880FCA95EAF70E94FC0AC1
:10076000EFCFEBE5EC0FE33040F4F0E0E05BFE4F61
:10077000808190E00E94F715E5CFE8E5EC0FEB31C2
:1007800050F4F0E0EE0FFF1FE65EFE4F8081918196
:100790000E941C16D7CF83E38C0F833198F661E05B
:1007A0008C2F0E948103CECF882381F19CEF980F7C
:1007B000913A28F40E9409170E94AD0B089590E227
:1007C000980F983050F4877091E001C0990F8A9586
:1007D000EAF7892F0E94020BEFCF9BE5980F933029
:1007E00028F490E080E00E94F715089598E5980FAE
:1007F0009B3128F490E080E00E941C16089593E35A
:10080000980F933118F460E00E94810308951F93BC
:10081000CF93DF93182FEB010E948B03209739F4BD
:10082000812F0E94D403DF91CF911F9108958FE90A
:100830009FE00197F1F700C000002197EFCF70E033
:1008400060E0893311F460E570E00E9407040895C8
:10085000882321F00E94FC0A0E94AD0B0895882392
:1008600021F00E94020B0E94AD0B0895B0E0A0E0C1
:10087000ECE3F4E00C946E1F6C01D62FC72FFC0143
:100880001581068102950F700E94F20AE82E8823D6
:10089000F9F0E12E1123E1F08C2F807F803461F09C
:1008A00080E28D0F883008F18C2F807E803221F419
:1008B000D230D8F00023C9F080918D0282FF15C09C
:1008C00082E00E94DD0B0E94F20A91E0E82EE92608
:1008D000BC2EB2949FE0B922FBE0FB15B8F1EB2DE2
:1008E000F0E0E65EFF4D0C945F1FE12CF1CF0C2F82
:1008F0000F70C07F11F00295007F112399F0002343
:1009000059F080E28D0F883010F0D11107C0802F90
:100910000E94FC0A0E94AD0B8D2F48C0802F0E94C0
:100920000C0BF8CF8D2F0E94D403002379F080E2C6
:100930008D0F883010F0D11104C0802F0E94020B5F
:1009400003C0802F0E94120B0E94AD0BEB2DE850CC
:10095000FF0B349708F06BC10E94C3150E9423035C
:10096000CDB7DEB7E9E00C948A1F2C2F2F70F22E42
:10097000C07FC03219F0F29480EFF822DD2341F0FD
:10098000D130C9F1112309F443C00023E9F0C4CFE9
:1009900080918D0282FD14C0112359F0FF2029F0AF
:1009A0008F2D0E94FC0A0E94AD0B80E00E948B03F9
:1009B000CDCF80E00E94D403FF2041F28F2DBECF27
:1009C000112369F0011104C08F2D0E942804BECFAD
:1009D000013009F0BBCF8F2D0E94300BB7CF011132
:1009E000B5CF8F2D0E942F048F2D0E943C0B8F2D91
:1009F0000E94200BABCF112321F0063008F0A6CFC8
:100A0000E3CF053008F0A2CF8F2D0E942F049ECF98
:100A10000023D1F3D93349F43FEF87EE93E031500F
:100A200080409040E1F700C000008D2F0E94D40369
:100A30008DCF8C2F86958695837069F0813009F073
:100A400085CF8D2F9C2F9370111102C080E090E014
:100A50000E941C167BCF8D2F9C2F9370111102C00A
:100A600080E090E00E94F71571CF612F8D2F0E94DA
:100A700081036CCF8C2F8370A1F5111167CF4D2F9F
:100A8000429546954770440F440F2D2F2F7030E04C
:100A9000042E02C0220F331F0A94E2F790E080E098
:100AA000D4FF09C08FE090E002C0880F991F4A95DB
:100AB000E2F780959095C695C695C370822B932BCF
:100AC000C23049F058F4C13019F00E94D6063ECF2A
:100AD0000E94CD063BCF0E94DF0638CF0E94CA0697
:100AE00035CF8695112311F08C2F8170882309F45E
:100AF0002DCF4D2F429546954770440F440F2D2F13
:100B00002F7030E0042E02C0220F331F0A94E2F748
:100B100090E080E0D4FF09C08FE090E002C0880F31
:100B2000991F4A95E2F780959095C695C695C37032
:100B3000822B932BC23049F058F4C13019F00E9437
:100B4000410704CF0E94380701CF0E944A07FECE1A
:100B50000E94EE06FBCECF70112329F08C2F0E944D
:100B600006078D2F32CF8D2F0E942F048C2F0E94CD
:100B70001607ECCED23F41F160F4D03FB9F0D13F3F
:100B800081F0112309F443C00111C6CE8C2F8F715F
:100B90001FC0D33F01F1D43FA1F780918D0282FDA8
:100BA00024C08C2F8F71112311F312C0112341F037
:100BB000053008F0CBCE8C2F8F710E942807C6CE4F
:100BC000063008F0C3CEF7CF8C2F8F711111CFCF25
:100BD0000E940607BBCE112329F08C2F8F710E9433
:100BE000FA06B4CE0E94F506B1CE112331F063E0CF
:100BF0008C2F8F710E94BF0BA9CE81E00E94DD0B6C
:100C0000023008F4A3CE82E00E94DD0B9FCE0023C9
:100C100059F0D93309F009CFEFEFF7EE23E0E150B7
:100C2000F0402040E1F7FFCE8C2F8F71A0CFEE2057
:100C300009F496CE0E94EE0A80FD92CEF60115824E
:100C40000E94E80A0E940607C6010E9444060E940C
:100C5000E80A0E94160784CE0F931F93CF93DF9369
:100C6000EC01688179818D810E9409088C010E94C4
:100C700053070E94C906B801CE010E943604DF91D5
:100C8000CF911F910F910895CF93DF93EC018C8149
:100C9000882399F0CE010E94A002811111C00E9408
:100CA000F20A882351F08D81882339F080918D02DA
:100CB00082FF03C082E00E94DD0BDF91CF91089597
:100CC000CE010E942C06CE010E944502F6CF90E094
:100CD00080E00E94F71590E080E00E941C160E94C0
:100CE000190B0E94AD0B0E9406140E94EA1308958E
:100CF0000E9423170E94670608950E94090B0E9414
:100D00007806089592959F70963091F058F4925F0E
:100D10009F70923058F4803F19F030F4883E30F4E0
:100D200081E008959A5FF4CF843FD1F380E0089585
:100D3000883EB0F3813FD1F7F3CFFC012481222319
:100D400039F0808191810E94FE070E9482060895F9
:100D500080E00895A6E0B0E0E0EBF6E00C94751FAB
:100D60002696E2E00C94911FA7E0B0E0EAEBF6E0F3
:100D70000C94751F2796E2E00C94911F08950E9431
:100D8000BE0608950E94BF069093BF018093BE01E6
:100D9000089508950E94C20608952091BE013091E1
:100DA000BF01822B932B0E94C20608952091BE01A1
:100DB0003091BF01822393230E94C206089520919F
:100DC000BE013091BF01822793270E94C206089579
:100DD0000E94BE0608950E94E80608950E94EB0650
:100DE0009093BD018093BC01089590E080E00E9443
:100DF000EE06089521E030E0A90102C0440F551F1E
:100E00008A95E2F7CA010E94EE06089521E030E0DB
:100E100002C0220F331F8A95E2F78091BC019091A6
:100E2000BD01822B932B0E94EE06089521E030E055
:100E300002C0220F331F8A95E2F7209530958091EA
:100E4000BC019091BD01822393230E94EE06089578
:100E500021E030E002C0220F331F8A95E2F7809133
:100E6000BC019091BD01822793270E94EE06089550
:100E70002091BC013091BD01822B932B0E94EE0684
:100E800008952091BC013091BD01822393230E94DB
:100E9000EE0608952091BC013091BD018227932771
:100EA0000E94EE0608950895262F277091E001C054
:100EB000990F2A95EAF723E0769567952A95E1F749
:100EC000660F771F660F771FFA01E60FF71F50E0D6
:100ED00040E0682F70E08191DF0111979B01042EA3
:100EE00002C0369527950A94E2F7217021952827AC
:100EF000292328272C934F5F5F4F4430510559F722
:100F00000895A82FA77023E0969587952A95E1F775
:100F1000880F991F880F991FFB01E80FF91F50E0F8
:100F200040E080E0219130E00A2E02C036952795FE
:100F30000A94E2F721703327042E01C0220F0A948D
:100F4000EAF7822B4F5F5F4F4430510559F7089500
:100F5000262F943070F48C3060F4682F70E08CE0B1
:100F6000989F600D711D112444EA51E0822F0E9468
:100F700054070895292F943068F48C3058F490E089
:100F800064EA71E03CE0239F800D911D11240E94D2
:100F90008107089580E00895B0E0A0E0E2EDF7E079
:100FA0000C946E1F7C010091BC011091BD018091D9
:100FB000BE019091BF01082B192BCFE0D0E0CC24CB
:100FC000C394D12CBC2EC6010C2E02C0880F991FD1
:100FD0000A94E2F780239123892B49F4219790F713
:100FE000B12C8B2DCDB7DEB7E9E00C948A1FB70189
:100FF0008C2F0E94FA0E019789F3F3CFCF93DF93E2
:10100000EC010E94CC07BE010E94FA0EDF91CF9145
:1010100008951F93CF93DF93EB019091A301992340
:1010200039F0CB010E94FE07DF91CF911F91089507
:10103000882369F0CB010E94CC07182F682FCE01BE
:101040000E94A807BE01812F0E94FA0EEDCFCB01AE
:101050000E94BA07182FF6CF1F93CF93DF93C0914A
:10106000C00117E08091C1018C1304C0DF91CF91C2
:101070001F910895D0E01C9FF0011D9FF00D1124D9
:10108000EE53FE4F2081318142815381648175810D
:1010900086810E94B4062196C770E4CF2091FA01A0
:1010A0003091FB014091FC015091FD016091FE01E6
:1010B0007091FF01809100020E94B4060895CF93C1
:1010C000DF9380910002807F09F04DC08091FF0185
:1010D000882309F448C0E091C0015091C101C0913A
:1010E000FB01D091FA016091FC017091FD0147E094
:1010F0005E17C9F18E2F90E0E49FF0011124EE53AA
:10110000FE4F2481222391F1489FF001499FF00D69
:101110001124DF01AE53BE4F11962C9111972C1361
:1011200025C02C912D1322C015962C9115972111B5
:101130001DC012962D913C91261B370B283C310582
:10114000A8F4809100028F70806180930002E853C0
:10115000FE4F80818F70806180838AEF91E00E94D2
:1011600044060E942C08DF91CF910895FC0131962E
:10117000E770BECF482F2091C0019091C10157E088
:10118000291302C080E0089530E0529FF001539F80
:10119000F00D1124EE53FE4F8181681306C080814B
:1011A000481303C085818111EECF2F5F3F4F277019
:1011B000E7CFA4E1B0E0EFEDF8E00C946B1F8C01F9
:1011C00086E0F801DE011F9601900D928A95E1F705
:1011D000F8018481E5809AEFA92E91E0B92E9091D3
:1011E000FE0191111FC08823D1F0EE20A9F0C801A3
:1011F0000E949D06F82E882379F087E0F801D5013A
:1012000001900D928A95E1F7C5010E9478030E9432
:101210005F080E944E085FC0C8010E944406FF2478
:10122000F39459C0C080D18082809380F090FF01F8
:101230002091FC013091FD01A401421B530BFF20C2
:1012400009F4F9C0483C510508F0A7C0882309F407
:1012500042C09091FB0180910002282F207F09F06D
:101260005CC09D1116C09091FA01C91212C0E11024
:101270004EC08F708061809300020E944E088AEFFA
:1012800091E00E94440680910002F8018683F12CCF
:1012900022C0E1103CC06D2D8C2D0E94BA086D2D2E
:1012A0008C2D0E94BA08E82E8111F1CFCF86D88A02
:1012B0008F8598890E94FE07292F22952F70243050
:1012C00078F49F702230A8F09923B9F0F801968144
:1012D000907F99F4FE2C8F2D6496ECE00C94871F80
:1012E0002A5F2F70223068F0C8010E944406EF2C5C
:1012F000F1CF992311F0882369F3805E883050F391
:10130000F3CF803F38F3815F833070F7E3CF809174
:101310000002816080930002BACF9D1113C09091AA
:10132000FA01C9120FC0E1100DC08683C8010E94E6
:10133000440687E0F801AAEFB1E001900D928A958A
:10134000E1F767CFC8010E949D06882309F464CFA6
:10135000EE2009F461CF80910002803288F0209164
:10136000FA013091FB01398728879B868A86909104
:10137000FE019C871D868E87CE0108960E9444063A
:1013800087E0F801AAEFB1E001900D928A95E1F7AC
:101390000E945F080E944E0842CF90910002292FC0
:1013A000207FA1F4682D9A8A898AA6017A899E2DC8
:1013B0000E94AA068AEF91E00E94440687E0F501A8
:1013C00011928A95E9F70E944E0861CF882309F4AB
:1013D00082CF8091FB018D1110C08091FA01C8125B
:1013E0000CC0E1100AC09683C8010E94440687E041
:1013F000F50111928A95E9F76ECFC8010E949D060A
:10140000882309F409CFEE2009F406CF8091000269
:10141000803208F4B5CF2091FA013091FB013A8374
:1014200029839C828B829091FE019D831E828F83F3
:10143000CE010196A3CF483C5105B8F5882309F4A5
:10144000EECEFE2CEE2009F4E7CE8091FB018D114B
:101450001EC08091FA01C8121AC08091000280FD5E
:101460000DC0982F907F51F08683903F09F45ECF96
:10147000982F907F905F8F70892B57CF87E0F8016E
:10148000AAEFB1E001900D928A95E1F724CFC8014F
:101490000E949D06811174CF80910002816080932B
:1014A0000002C8010E94440616CF682D9A8A898AD4
:1014B000A6017A899E2D0E94AA0687E0F501119265
:1014C0008A95E9F7A6CEAEE0B0E0E9E6FAE00C9442
:1014D000741F288739874A875B876C877D878E874B
:1014E000CE0108960E94D9088823B1F06C85662346
:1014F00041F0288539854A855B857D858E850E94EA
:10150000B40617E08091C0019091C10189133DC0DC
:101510002E96E3E00C94901F87E0FE013896DE01E2
:10152000119601900D928A95E1F78C85882349F3F5
:101530002091C10130E0C90101968770992740913F
:10154000C0014817190699F097E0929FD001939F28
:10155000B00D1124AE53BE4FFE01319601900D9295
:101560009A95E1F78093C1010E942C08CACF0E948E
:101570007D061092C1011092C00187E0EAEFF1E010
:10158000DF011D928A95E9F7BCCF819FC00111242C
:101590008E539E4F0E94D908882309F4B9CFE09159
:1015A000C0011E9FF0011124EE53FE4F20813181B6
:1015B000428153816481758186810E94B406809145
:1015C000C00190E00196877099278093C0019ACF5F
:1015D00080912902869586958695089580912902A5
:1015E0008770089590912902977081E009F480E056
:1015F000089580915502089590915502892B80930A
:101600005502089580959091550298239093550224
:10161000089510925502089590915402892B809359
:101620005402089580959091540298239093540207
:10163000089510925402089508950E941C0B089575
:1016400090912A02292F282331F0809589238093B5
:101650002A020E941D0B089508950E942C0B0895E4
:1016600090912B02292F2823281729F0982B90934B
:101670002B020E942D0B089590912B02292F2823D5
:1016800031F08095892380932B020E942D0B0895C1
:1016900080912B02882329F010922B0280E00E9477
:1016A0002D0B0895CF93C091550280915402C82B01
:1016B00080912B02882331F0C82B0E9441168111A2
:1016C0000E94480B8C2FCF910895CF93DF93C09148
:1016D0000201D09103010E94520B8883C091020144
:1016E000D091030148E050E061E272E0CE010E9437
:1016F000B01F892B59F088E0FE01A1E2B2E0019011
:101700000D928A95E1F7CE010E94D015DF91CF911D
:101710000895CF93DF93C0910001D09101010E9401
:10172000520B8983C0910001D091010140E250E049
:1017300061E072E0CE010E94B01F892B59F080E277
:10174000FE01A1E0B2E001900D928A95E1F7CE0191
:101750000E94DB15DF91CF9108950E94B31781306D
:1017600039F480918C0287FF03C00E94890B089591
:101770000E94650B089508950E94BB0B08959091F7
:101780008D0292FF11C098E0899F90011124622B75
:10179000609329020E94060780912902869586950A
:1017A00086950E94BC0B08950E940607089510922A
:1017B000290280E00E94BC0B089590912902809537
:1017C000892380932902282F277069F4891759F0FB
:1017D00090918D0292FF07C08695869586950E940E
:1017E00016070E94D70B089590918D0292FB222735
:1017F00020F9281769F080FB92F990938D0280916F
:101800008C0290918D020E94430C82E00E94DD0BBD
:10181000089580918D0282FB882780F991E08927C5
:101820000E94F40B089581E00E94F40B089580E07B
:101830000E94F40B08956FEF7FEF90E080E00E942C
:101840000220089590E080E00E94CE1F21E0853EB6
:101850009E4F09F020E0822F089582E090E00E94E0
:10186000C61F089583E090E00E94C61F90E008958F
:10187000682F83E090E00E94E41F089584E090E0E8
:101880000E94CE1F0895BC0184E090E00E940220D7
:101890000895AB01BC018FE090E00E94F61F08950F
:1018A000AB01BC0183E190E00E94F61F089560E067
:1018B00070E0CB010E94500C089560E070E0CB0115
:1018C0000E94490C0E94570C0895A8E0B0E0EBE696
:1018D000FCE00C94751F65EE7EEF90E080E00E94C6
:1018E000022060E082E090E00E94E41F81E090E04E
:1018F0009093BF018093BE010E94380C60E074E1B8
:1019000084E090E00E94022060E086E090E00E9487
:10191000E41F60E087E090E00E94E41F40E050E0B8
:10192000BA0188E090E00E94F61F60E083E290E058
:101930000E94E41F60E08CE090E00E94E41F60E001
:101940008DE090E00E94E41F19821A821B821C82A3
:101950001D821E821F82188648E050E067E170E019
:10196000CE0101960E94D41F40E050E0BA018FE101
:1019700090E00E94F61F0E945D0C2896E2E00C9415
:10198000911F0E94650C0895682F8EE090E00E94E0
:10199000E41F0895A6E0B0E0E0EDFCE00C94731FB6
:1019A0000E9466188C018091560290915702801710
:1019B000910781F019821A820E946618682F498166
:1019C0005A81792F80E090E00E94480310935702DB
:1019D000009356022696E4E00C948F1F0E94721822
:1019E000609364027093650280936602909367022D
:1019F000609360027093610280936202909363022D
:101A00000895089508950E94010D089508950E9473
:101A1000060D0E94030D089508950E940C0D08956F
:101A200008950E94100D0E940D0D089580EF9FE013
:101A30000E9466110E94020D0E94070D089581E028
:101A400008950E941F0D08950E941F0D0895089586
:101A5000089508950E94270D0E94280D0E94290DC7
:101A600008950E94220C811102C00E94C10C0E94A4
:101A70002D0C809368020E943E0C90938D028093FF
:101A80008C020E9489110E94320C0E94CA06809129
:101A9000BC019091BD010E94EB0608950E945D1863
:101AA0000E94C1100E94310D0E9422030E94110D5C
:101AB0000895A6E0B0E0EFE5FDE00C94691F0E94F8
:101AC000210D81110AC00E94CA0C0E9428140E9494
:101AD0002F032696EEE00C94851F0E94D71028E570
:101AE000822E22E0922E640110E0F601E190F19046
:101AF0006F01812F0E940C101F5F143009F44BC03E
:101B0000E816F90691F38091680281FD0E94151094
:101B10000E94240D782E10E066246394812F0E9489
:101B20000C107C01F401A190B1904F018A159B0526
:101B300061F100E0CC24C394D12CAE24BF24C501B4
:101B40008C219D21892BC1F07720B1F009831A8364
:101B50000E9466189C838B836D8221E0C7018C21D3
:101B60009D21892B09F420E049815A816B817C8178
:101B70008D81922F0E9448030F5FCC0CDD1C0C302E
:101B8000F1F6F4013297F182E0821F5F143031F6F2
:101B90000E94EE0C9ACFE816F90609F0B4CF93CF65
:101BA0001F93CF93DF930E94FF0EEC01C11580E5D8
:101BB000D807F0F5C11580E4D80708F09CC0C03EF6
:101BC000D10520F5CD3CD10508F082C0C83AD10539
:101BD00078F4C53AD10508F073C0C130D10519F1C8
:101BE000209709F1C430D105F0F4D0E0C0E01BC06B
:101BF000C33CD105D0F7C85AD0E0CC0FDD1FCD5A79
:101C0000DE4F0990D881C02DD4640DC0C11580E28B
:101C1000D80708F0D1C0C11581E0D80708F05AC034
:101C2000C83ED10510F7CE01DF91CF911F910895E5
:101C3000C03682E5D80718F5C03482E5D80708F029
:101C40006BC0C03282E5D80708F05FC0C11582E5DD
:101C5000D80708F497C02C2F2695269580E2289F58
:101C6000900111248C2F8370C1E0D0E002C0CC0F12
:101C7000DD1F8A95E2F7C22BD32BDD68D4CFC03AA3
:101C800082E5D80760F4C03882E5D80708F459C067
:101C9000CF71D0E0DC2FCC27C46FD06AC4CFC03C5A
:101CA00082E5D80708F462C0C03E82E5D80708F094
:101CB0009CCFDC2FCC27CC27DF71C06FD06AB3CF8D
:101CC000C55AD0E0C757DE4FC881D0E0D064ABCF53
:101CD000D065A9CF8D2F0E94A10F182FCE01992773
:101CE0000E94FF0EC12FD0E0DC2FCC27CC27DF7164
:101CF000C82BD92B98CFCE0199270E94FF0ECC2755
:101D0000DF70C82BD92BD06A8ECFCF71D0E0DC2FFB
:101D1000CC27C16FD06A87CF2C2F269526952770A8
:101D200080E2289F900111248C2F8370C1E0D0E0C5
:101D300002C0CC0FDD1F8A95E2F7C22BD32BDC68E3
:101D400072CF2C2F26952695277080E2289F900130
:101D500011248C2F8370C1E0D0E002C0CC0FDD1FB6
:101D60008A95E2F7C22BD32BDA685DCF8C2F8F7167
:101D70000E94A10FC82FD0E0DC2FCC27CC27DF7129
:101D8000D06251CF8C2F8F710E94A10F55E0D69554
:101D9000C7955A95E1F7CF70D0E0DC2FCC27282FDC
:101DA00030E084FF05C044E0220F331F4A95E1F77D
:101DB000C22BD32BD06937CF8D2F8F710E94A10FEB
:101DC000182FCE0199270E94FF0EC12FD0E0DC2FE3
:101DD000CC27CC27DF71C82BD92BD2CF462F74301C
:101DE00030F46C3020F4672F0E94D701089590E002
:101DF00080E008950E94EE0E0E94D00D0895823872
:101E00009105B9F1B0F48133910509F47DC048F42E
:101E10008932910509F46DC08A32910509F47BC0BD
:101E200008958533910509F45FC08933910509F15F
:101E30000895833E9105D9F138F4803E910529F14A
:101E4000823E910579F10895863E9105D9F1873E4C
:101E5000910509F43EC0843E910541F520918D0223
:101E600021FF24C080918C0284FD19C087EE90E090
:101E7000089520918C02237009F05AC020918D02A0
:101E800023FF14C089E290E0089520918C0220FD88
:101E900038C030918D0230FF09C024FF43C090E06C
:101EA00080E0089520918C0222FDF7CF08952091C3
:101EB0008C0222FD3AC030918D0230FD39C024FFE2
:101EC000F5CFEDCF20918C0223FFF0CF24FDE7CF9B
:101ED000CDCF20918C0223FD2EC030918D0231FF99
:101EE000EECF84EE90E0089520918C0225FFDECFA6
:101EF000C9CF20918C0225FD21C020918D0223FFA6
:101F0000D5CF89E390E0D2CF20918C0226FFCECFAF
:101F10008AE290E0089520918C0226FFC7CF81E3EA
:101F200090E0089583EE90E0089582EE90E00895A9
:101F300080EE90E0089586EE90E0089585E390E0CD
:101F4000089590918C0292FF10C041E0282F2471D7
:101F5000243009F040E031E0282F2871283009F0C2
:101F600030E0431711F02CE0822793FF10C041E0CE
:101F7000282F2471243109F040E031E0282F287106
:101F8000283109F030E0431711F02CE0822730911E
:101F90008D0230FF10C051E0282F2171213009F04F
:101FA00050E041E0282F2871283009F040E0541714
:101FB00011F029E0822731FF10C041E0282F217164
:101FC000213109F040E031E0282F2871283109F053
:101FD00030E0431711F029E0822794FD877E0895B1
:101FE00080E00895CF939C01205E3245C1E020320D
:101FF000310538F4FB01C581C11103C08F710E9406
:1020000066028C2FCF91089508950E9404100895C0
:1020100008950E9408100895E82FF0E0EE0FFF1FCA
:10202000EA56FD4F808191810895089580EA8A954E
:10203000F1F7089500C008950E9416100895F894CD
:10204000E82FE295EF70F0E031A1282F2F7081E0AA
:1020500090E001C0880F2A95EAF7982F9095932376
:1020600091A392A1892B82A378940895CF93DF93B3
:1020700086EF0E941F1083E30E941F1082E30E94DC
:102080001F1086E30E941F10CCE8D1E089918F3F9A
:1020900011F00E941F1081E0C839D807B9F7DF910D
:1020A000CF910895AF92BF92DF92EF92FF920F937C
:1020B0001F93CF93DF938C01D62EC62FD0E0CE0195
:1020C00088569E4F7C01FC0120812F3F09F44CC0B3
:1020D000F894E22FE295EF70F0E031A12F7081E0EB
:1020E00090E001C0880F2A95EAF7932F982B91A3CF
:1020F00092A18095892382A378940E941A10ECE81B
:10210000F1E041E050E0B12CA12C21912F3FB1F141
:10211000A22FA295AF70B0E090968C9190E02F70B6
:1021200002C0959587952A95E2F780FD27C0CA01E0
:10213000A82AB92A440F551F81E0E839F80729F782
:10214000F70180818F3F11F00E941F1061E0A11400
:10215000B10409F460E08D2D0E941C10CC0FDD1F2E
:10216000C00FD11FB982A882DF91CF911F910F912B
:10217000FF90EF90DF90BF90AF90089590E080E0E7
:10218000D7CF0E94361088E0E6E9F2E0DF01982F11
:102190001D929A95E9F7EEE8F2E0DF011D928A952B
:1021A000E9F784E00E9412110E9405100895A8E04A
:1021B000B0E0EDEDF0E10C94721F8E010F5F1F4F48
:1021C00088E0F80111928A95E9F7F12C6F2DC8018A
:1021D0000E945210F394F4E0FF12F8CF48E050E070
:1021E000B8018EE892E00E94B01F21E0009709F448
:1021F00020E0892B41F088E0F801AEE8B2E00190E0
:102200000D928A95E1F744E066E972E08EE892E08B
:102210000E941311182F0E940910812F2896E5E0C3
:102220000C948E1F0895B0E0A0E0E9E1F1E10C9478
:102230006F1F6C017B01042FC22F222379F081E0F4
:1022400080936B020E94661890936A0280936902E1
:1022500080E0CDB7DEB7E8E00C948B1FD0916B0225
:10226000DD23B1F38091690290916A020E94F51713
:10227000059770F310E0000F111FA801B601C70108
:102280000E94B01F892B31F0A801B601C7010E943E
:10229000BD1FCD2F10926B028C2FDBCF0E94590DEA
:1022A00008950E94FF170E94071A0E94160D0E94AF
:1022B000211A0E944E0D0E942E1A0E94331A0E946B
:1022C0004E110E944D1A0E942A0DF7CF90939D0146
:1022D00080939C0108950E941B0C089580E00E9449
:1022E0000C10817008950E94D7102FEF86E791E0BF
:1022F000215080409040E1F700C000000E94D710BC
:102300000E946E11882321F00E946B110E94A21876
:1023100008950E9473110895CF93DF93EB018631E6
:102320009C4711F50E94F90A9D81992399F08A7AB8
:1023300091E009F490E090936C02811109C089E268
:102340000E94EF160E94AD0B80E0DF91CF910895BF
:1023500085E3F6CF80916C02811104C089E20E946E
:102360000917F0CF85E3FBCF81E0EFCFCF93DF9369
:10237000EC01FB018581882309F4D2C09E0130570E
:102380002332310508F0B2C00E943E0C90938D02BA
:1023900080938C02FE01E150F047E232F10520F417
:1023A000EA5DFF4D0C945F1F80918C0281608093E9
:1023B0008C0293C080918D02886080938D028DC0C5
:1023C00080918C028260F3CF80918C028460EFCF89
:1023D00080918C028860EBCF80918D028160EDCF7F
:1023E00080918D028260E9CF80918C028061DFCF85
:1023F00080918C028062DBCF80918C028064D7CF89
:102400000E947D0680918C028068D1CF80918C02E1
:102410008C60CDCF80918D028360CFCF80918C0274
:102420008E7FC5CF80918D02877FC7CF80918C0230
:102430008D7FBDCF80918C028B7FB9CF80918C0234
:10244000877FB5CF80918D028E7FB7CF80918D022F
:102450008D7FB3CF80918C028F7EA9CF80918C022B
:102460008F7DA5CF80918C028F7BA1CF0E947D06AE
:1024700080918C028F779BCF80918C02837F97CF46
:1024800080918D028C7F99CF80918C0282FB99275D
:1024900090F921E0922790FB82F990FB83F987CF96
:1024A00080918D02982F909591708E7F892B90FB53
:1024B00081F983CF90918C02892F8F7B96FF806466
:1024C00076CF0E947D0690918C02892F97FB87F929
:1024D00080586DCF81E00E94C40C80918C02909155
:1024E0008D020E94430C0E947D0680E0DF91CF9117
:1024F000089580E0F0CF90918C02892F8F7E94FF19
:10250000806155CF90918C02892F8E7F90FF8160E2
:102510004ECF90918D02892F877F93FF88604DCF9A
:1025200081E0E4CF282F35EB2303C001112497FF6E
:1025300004C080589109892F089580589F4FFBCF80
:102540008091730280FF0DC06091090170E0660FF9
:10255000771F6038710570F56115710569F1862F77
:10256000089581FF07C06091090184E0689FB00170
:102570001124EFCF6091090182FD0AC0809172029F
:102580008823A9F02091080160910901821710F0B9
:1025900088E0ECCF869FC001112433E0880F991F9B
:1025A0003A95E1F7622F70E00E944B1FD2CF68E0AE
:1025B00070E0D5CF8FE7089581E008958091730290
:1025C00080FF0CC06091050170E075956795759569
:1025D00067956115710549F1862F089581FF06C041
:1025E0006091050170E075956795F3CF60910501E5
:1025F00082FD0BC0909171029923A1F060910401BA
:1026000080910501961738F0682F70E060387105E9
:1026100000F38FE70895899FC001112470E00E94A4
:102620004B1FF4CF61E070E0D7CF81E008958D3C7F
:1026300031F40E94A01281958093770208958E3C18
:1026400019F40E94A012F8CF8F3C31F40E94A0121E
:102650008195809376020895803D19F40E94A0121E
:10266000F8CF893D29F40E94DE1280937802089504
:102670008A3D21F40E94DE128195F7CF8B3D31F423
:102680000E94DE1281958093790208958C3D19F4A1
:102690000E94DE12F8CF9FE2980F983070F4815DAF
:1026A000990B21E030E001C0220F8A95EAF7809172
:1026B0007502822B8093750208958D3D31F48091CF
:1026C000730281608093730208958E3D21F480919E
:1026D00073028260F7CF8F3DB9F7809173028460F7
:1026E000F1CF409176028D3C59F48091770287FFBB
:1026F0000DC01092770241110BC01092720208C0F7
:102700008E3C81F48091770218169CF3442381F06B
:102710008091780290917902892B09F05AC0109229
:10272000710208958F3C49F447FFF0CF1092760272
:10273000809177028111ECCFE0CF803D19F414161F
:10274000ACF3E4CF90917802893D29F41916F4F6A0
:1027500010927802DBCF8A3D19F497FFD7CFF8CFDC
:10276000909179028B3D29F497FFD0CF1092790296
:10277000CDCF8C3D19F41916CCF3C8CF9FE2980F3A
:10278000983090F4815D990B21E030E0B90102C0EE
:10279000660F771F8A95E2F7CB01809590917502BD
:1027A000892380937502B2CF8D3D31F480917302FD
:1027B0008E7F80937302AACF8E3D21F480917302A5
:1027C0008D7FF7CF8F3D09F0A1CF809173028B7F72
:1027D000F0CF08950E9466189C0190917602809136
:1027E0007702982B21F03093700220936F02909122
:1027F000780280917902982B21F030936E02209319
:102800006D0284E792E00E94E915089586E0E4E70E
:10281000F2E0DF011D928A95E9F7109272021092A0
:102820007102109273020895FC01828181110EC021
:10283000838181110BC08481811108C091E0858161
:10284000811101C090E0892F8170089581E0FCCF53
:10285000A6E0B0E0EEE2F4E10C94741F86E0E4E759
:10286000F2E0DE01119601900D928A95E1F7109247
:1028700076021092770210927802109279028B8180
:102880009C81892B89F080916F02909170020E9447
:10289000F517AC01909172029923C9F180910A0158
:1028A0008417150608F440C08D819E81892B91F014
:1028B00080916D0290916E020E94F517AC0190918B
:1028C0007102992309F46AC08091060184171506E4
:1028D00008F472C0BE016F5F7F4F84E792E00E94F0
:1028E0003D17811105C084E792E00E941414811104
:1028F0000E94EA1386E0FE013196A4E7B2E001905F
:102900000D928A95E1F72696E3E00C94901F2091B2
:102910000B018AE0289F900111242417350720F627
:102920009F5F9093720202C09F3FD1F71B811123DA
:1029300059F00E94A0129FEF11160CF491E0899FAC
:10294000802D1124809376021C81112359F00E945E
:10295000A0129FEF11160CF491E0899F802D112495
:102960008093770280917602882309F49DCF10919D
:102970007702112309F498CF0E949212882351F014
:1029800080937602812F0E949212882329F08093EF
:1029900077028ACF81E0F4CF81E0F9CF209107015F
:1029A0008AE0289F900111242417350708F092CF60
:1029B0009F5F9093710202C09F3FD1F71D81112349
:1029C00059F00E94DE129FEF11160CF491E0899FDE
:1029D000802D1124809378021E81112359F00E94CA
:1029E000DE129FEF11160CF491E0899F802D1124C7
:1029F0008093790280917802882309F46BCF10913B
:102A00007902112309F466CF0E949212882351F0B3
:102A100080937802812F0E949212882329F080935C
:102A2000790258CF81E0F4CF81E0F9CF0F931F9363
:102A3000CF93DF93C42FD22FFC0185818823C9F067
:102A400040937C020E94661890937B0280937A02E6
:102A500080E28C0F883040F4C77081E001C0880F9D
:102A6000CA95EAF70E942804DF91CF911F910F9138
:102A7000089510917C02141332C080917A029091D3
:102A80007B020E94F517883C910548F5C0E2CD0F06
:102A90001D17B9F080E2810F883040F4177081E093
:102AA00001C0880F1A95EAF70E942F04C83048F435
:102AB00081E09D2F977001C0880F9A95EAF70E94D8
:102AC0002804802F0E941F04C83070F6D77081E060
:102AD00001C0880FDA95EAF70E942F04C5CF80E283
:102AE0008C0F883008F6C77081E001C0880FCA9546
:102AF000EAF7F2CF0F93DB0188519C4787309105AD
:102B0000A0F5FC01E85BFF4D0C945F1F06E221EE8F
:102B100041EE6AE17CE7CD010E94161580E00F913D
:102B2000089507E225EE45EE6BE17CE7F4CF06E27F
:102B300021EE40EE68E17CE7EECF07E225EE44EEC1
:102B400069E17CE7E8CF06E221EE42EE6CE17CE74A
:102B5000E2CF07E225EE46EE6DE17CE7DCCF08E24E
:102B600021E045EE6EE17CE7D6CF15968C91882367
:102B700019F010927C02D3CF81E0D1CF90938202E2
:102B8000809381020895E0918102F0918202309752
:102B900029F00190F081E02D0995089580E00895D5
:102BA000E0918102F0918202309721F00280F3815E
:102BB000E02D09950895E0918102F091820230970D
:102BC00039F026E0DC012C930480F581E02D099595
:102BD0000895E0918102F0918202309739F022E06D
:102BE000DC012C930680F781E02D09950895A3E080
:102BF000B0E0EDEFF5E10C94751F20917F0230916C
:102C0000800228173907A1F09093800280937F02F9
:102C1000E0918102F0918202309751F023E0298304
:102C20009B838A830084F185E02DCE01019609956E
:102C30002396E2E00C94911FA3E0B0E0E2E2F6E11B
:102C40000C94751F20917D0230917E022817390760
:102C5000A1F090937E0280937D02E0918102F09139
:102C60008202309751F024E029839B838A83008479
:102C7000F185E02DCE01019609952396E2E00C94B2
:102C8000911FCF93DF93C0910201D091030122964F
:102C90000E94B317813081F480918C0287FF0CC0B1
:102CA000C0910001D091010122969EE180E09150F7
:102CB00028F4DF91CF91089596E0F8CF299122234F
:102CC000B1F38F5FF4CFCF93C82F811102C080E0A2
:102CD00024C00E94B317813011F580918C0287FFC8
:102CE0001EC0EC2FE695E695E695EE3180F78091D3
:102CF000000190910101E80FF92FF11D228130E0D0
:102D0000C77081E090E002C0880F991FCA95E2F772
:102D10002823392381E0232BD1F2CF91089580918C
:102D2000020190910301FC013296089621912C1723
:102D300021F0E817F907D1F7CACF81E0EECF9C0167
:102D4000FC0132969FEF80E04191461751F09F3F82
:102D500019F4411101C0982F8F5F8630A9F79F3F6A
:102D600009F40895290F311D97FD3A95F901628301
:102D70000895FC01329608962191261303C0DF01C5
:102D800011971C92E817F907B9F70895E62FE69511
:102D9000E695E695EE3168F4E80FF92FF11D6770BE
:102DA00021E030E001C0220F6A95EAF78281822B90
:102DB00082830895E62FE695E695E695EE3170F468
:102DC000E80FF92FF11D677021E030E001C0220FFC
:102DD0006A95EAF720958281282322830895CF936C
:102DE000C82F0E94B3176C2F813061F480918C0240
:102DF00087FF08C080910001909101010E94C616D2
:102E0000CF91089580910201909103010E949F1635
:102E1000F7CFCF93C82F0E94B3176C2F813061F486
:102E200080918C0287FF08C0809100019091010180
:102E30000E94DA16CF9108958091020190910301CA
:102E40000E94B916F7CF0E94B317813079F48091B0
:102E50008C0287FF0BC0E0910001F09101013296D6
:102E60008EE1DF011D928A95E9F70895E091020154
:102E7000F0910301329686E0F4CFDC01FB0111965C
:102E80009C9111978181981322C012968C91129770
:102E9000882319F0928189131AC013968C91139785
:102EA000882319F09381891312C015968C91159778
:102EB000882319F0958189130AC014969C9199234F
:102EC00021F081E02481291303C080E001C081E06A
:102ED0008170089508950E946A17089581110EC0A7
:102EE00081E080930F0160910C0170910D01809140
:102EF0000E0190910F010E946B17089582E0F1CFAF
:102F000083E080930F0160910C0170910D0180911D
:102F10000E0190910F010E946B1708950E946E1789
:102F2000089581E080930F0160910C0170910D0173
:102F300080910E0190910F010E946B1708950E94DD
:102F40009117089591E0811101C090E090930E01D6
:102F500060910C0170910D0180910E0190910F0113
:102F60000E946B17089580910E01089580930D01C2
:102F700060910C0170910D0180910E0190910F01F3
:102F80000E946B17089580910D01089580930C01A4
:102F900060910C0170910D0180910E0190910F01D3
:102FA0000E946B17089580910C010895089508956B
:102FB0000E94D7170895089508950E94D61708957E
:102FC000CF930E94DB170E94D7100E94DC17C0E04D
:102FD0008C2F0E940C10892B31F4CF5FC430C1F7C5
:102FE00080E0CF91089581E0FCCFCF93DF93EC0197
:102FF0000E9466188C1B9D0BDF91CF91089585B7B9
:10300000806885BF85B7806885BF08951F921FB609
:103010001F9211248F939F93AF93BF93809183024C
:10302000811113C080919E0290919F02A091A002F5
:10303000B091A1024196A11DB11D80939E02909373
:103040009F02A093A002B093A102BF91AF919F9164
:103050008F911F901FBE1F9018958091A6028430FB
:1030600031F10E9402031092830288E190E020E493
:103070000FB6F894A895809360000FBE209360006F
:1030800083B7817F846083BF83B7816083BF789477
:10309000889583B78E7F83BF0FB6F894A8958091EB
:1030A0006000886180936000109260000FBE0895F8
:1030B0000E947D060E940903089582E084BD93E08A
:1030C00095BD9AEF97BD80936E0008952FB7F89441
:1030D00080919E0290919F02A091A002B091A102C6
:1030E0002FBF08952FB7F89460919E0270919F02B0
:1030F0008091A0029091A1022FBF089578941F9211
:103100001FB61F9211248F939F93AF93BF9380910B
:103110009E0290919F02A091A002B091A1020196FF
:10312000A11DB11D80939E0290939F02A093A002C7
:10313000B093A102BF91AF919F918F911F901FBE3D
:103140001F90189587E797E79093010880930008F0
:1031500088E19AE00FB6F894A895809360000FBEBE
:1031600090936000FFCF88E19AE00FB6F894A8959D
:10317000809360000FBE90936000FFCF9B01BA0167
:103180009091A6029430E9F48F708093E9009FEF4C
:103190008091E800915085FD06C085ED8A95F1F794
:1031A00000009111F5CF8091E80085FF0AC050E042
:1031B00040E0C9010E94C41A8091E8008E77809394
:1031C000E800089543E050E0BC0182E00E94BE1890
:1031D000089546E050E0BC0182E00E94BE180895C8
:1031E00040E250E0BC0182E00E94BE180895CF93F7
:1031F000DF93EC010E94B31748E050E0BE0181E08C
:103200000E94BE1888E0FE01A4E8B2E001900D9291
:103210008A95E1F7DF91CF9108958091A502811100
:1032200009C00E94541C0E94B11C8091E20084607D
:103230008093E20008951092A50208950E949117CC
:1032400081E00E94A21708956091A20281E06111BD
:1032500001C080E00E94801708959091A60281E04D
:10326000943009F080E06091A2020E948E170895C8
:1032700042E061EC81E00E94D01B42E261EC82E01E
:103280000E94D01B9091A60281E0943009F080E06A
:103290006091A2020E946E1708958091A802833067
:1032A00009F461C030F48130D1F1823009F49EC05C
:1032B00008958A3009F48AC08B3009F46FC08930D0
:1032C00009F050C08091A702813209F04BC0809173
:1032D000AB029091AC02029708F044C08091E800E4
:1032E000877F8093E8008091E80082FF37C090914B
:1032F000F3008091F200029731F48091F100813067
:1033000011F0863021F48091F1000E94B61780916F
:10331000E8008B778093E8000E94041C23C0809112
:10332000A702813AF9F48091E800877F8093E80052
:103330008091AB029091AC02892B61F468E084E843
:1033400092E070E00E94131B8091E8008B778093DD
:10335000E800089560E090E080E0F3CF8091A6025D
:103360008111C1CF08958091A702813AD9F7809148
:10337000AB029091AC02892BA9F78091E800877F7E
:103380008093E8008091E80080FFFCCF0E94B31793
:103390008093F1008091E8008E77BCCF8091A702E6
:1033A000813201F78091AB029091AC02892BD1F66A
:1033B0008091E800877F8093E8000E94041C809140
:1033C000A9020E94A2170E947D0608958091A7027B
:1033D000813241F68091E800877F8093E8000E9467
:1033E000041C8091AA020E94C61708958091A7022A
:1033F000813A09F0B7CF8091E800877F8093E80099
:103400008091E80080FFFCCF0E94D317C1CF84B722
:10341000877F84BF0FB6F894A8958091600088617B
:1034200080936000109260000FBE80E890E00FB6BD
:10343000F89480936100909361000FBE0E949F17E3
:1034400008950E94541C0E94B11CE2EEF0E08081BD
:103450008460808378940E94301F089580E191E019
:103460000E94BE1508958091A602853031F48091A6
:10347000A602853019F00E94581808950E942D1850
:103480000E94E017882399F38091A402882379F39E
:103490000E94AE1A0E947D06EACF08959A014091DB
:1034A000AD025091AE020E94561A0895492F552739
:1034B0004330510519F168F44130510509F444C015
:1034C0004230510509F445C090E080E050E040E012
:1034D00025C04132510549F142325105A9F784E432
:1034E00090E043EF52E061157105C1F086EB90E08A
:1034F0004DE352E06130710589F0E6CF99278130C4
:10350000910581F0009729F00297F1F6ECECF1E0DB
:1035100002C0ECEEF1E0849190E0AF01F90151833B
:1035200040830895ECEDF1E0F6CF89E090E042E0D1
:1035300052E06115710591F389E090E04BE152E0B2
:103540006130710559F3C0CF82E190E04BE252E067
:10355000E5CF8BE390E040EF51E0E0CF80E189BD23
:1035600082E189BD09B400FEFDCF8091D8008F7D36
:103570008093D8008091E00082608093E000809189
:10358000E00081FDFCCF0895AF92BF92CF92DF9211
:10359000FF920F931F93CF93DF936C01EB018A018E
:1035A0000E94231CF82E811123C00115110539F04A
:1035B000F80180819181C81BD90BC80ED91EB12C8E
:1035C000A12C2097A9F08091E80085FD22C0809170
:1035D000E8008E778093E80001151105A1F0F8014D
:1035E00080819181A80EB91EB182A08285E0F82E5B
:1035F0008F2DDF91CF911F910F91FF90DF90CF9092
:10360000BF90AF9008950E94231C8823D1F2F82E1A
:10361000EFCFF60181916F018093F1002197FFEFC9
:10362000AF1ABF0ACECFFC018091AD029091AE02DD
:1036300086179707A0F06115710529F49091E800AD
:103640009E779093E80090E06115710551F4911117
:1036500008C08091E80082FF34C080E00895BC017A
:10366000F2CF8091A6028823C1F18530C1F180910B
:10367000E80083FD30C08091E80082FDEACF8091B0
:10368000E80080FFE1CF8091F3002091F200382F15
:103690006115710519F02830310558F091E0283096
:1036A000310509F090E02091E8002E772093E800A2
:1036B000CBCF81918093F100615071092F5F3F4F13
:1036C000E7CF8091A602882341F0853041F08091B8
:1036D000E80083FFBECF81E0089582E0089583E093
:1036E0000895FC018091AD029091AE028617970774
:1036F000A0F06115710529F48091E8008E77809320
:10370000E80090E06115710551F4911108C08091B5
:10371000E80082FF35C080E00895BC01F2CF8091BF
:10372000A6028823C9F18530C9F18091E80083FDA4
:1037300031C08091E80082FDEACF8091E80080FFEF
:10374000E1CF8091F3002091F200382F61157105CF
:1037500019F02830310558F091E02830310509F092
:1037600090E08091E8008E778093E800CBCF849141
:103770008093F1003196615071092F5F3F4FE6CF82
:103780008091A602882341F0853041F08091E800C5
:1037900083FFBDCF81E0089582E0089583E008951E
:1037A000982F973028F08F708093E90081E008957A
:1037B0009093E900242F762F50E0981731F0709104
:1037C000EC002091ED005091F00021FD02C09F5FC0
:1037D000E8CF3091EB003E7F3093EB003091ED006D
:1037E0003D7F3093ED003091EB0031603093EB0082
:1037F0007093EC002093ED005093F0002091EE00C8
:1038000027FDE5CF80E008958091A70287FF13C0D0
:103810008091E80082FF06C08091E8008B7780935A
:10382000E80004C08091A6028111F2CF0895809132
:10383000A6028823D9F38091E80080FFF8CF809119
:10384000E8008E77ECCF2091E4003091E50095E61A
:10385000A9012091EC00822F817020FF06C0809189
:10386000E80080FF06C080E008952091E80022FD76
:103870001AC08091A602882389F0853089F0809152
:10388000EB0085FD0FC02091E4003091E500421768
:103890005307F9F29150E1F684E0089582E008952B
:1038A00083E0089581E008950E94C31C0E94CB1C10
:1038B000E0EEF0E0808181608083E8EDF0E08081DF
:1038C0008F77808319BCA7EDB0E08C918E7F8C93AD
:1038D00080818F7E80831092A50208950F931F939D
:1038E000CF93DF930E94C31C0E94CB1CC8EDD0E095
:1038F00088818F77888388818068888388818F7D9D
:10390000888319BC1092A6021092A2021092A402FF
:103910001092A30200EE10E0F80180818B7F80837B
:1039200088818160888342E060E080E00E94D01B53
:10393000E1EEF0E080818E7F8083E2EEF0E0808136
:1039400081608083808188608083F80180818E7FA0
:103950008083888180618883DF91CF911F910F914F
:103960000895E8EDF0E080818F7E8083E7EDF0E060
:1039700080818160808384E082BF81E08093A502A2
:103980000E946E1C0895E8EDF0E080818E7F8083B8
:103990001092E20008951092DA001092E10008956A
:1039A0001F920F920FB60F9211242F933F934F93B4
:1039B0005F936F937F938F939F93AF93BF93EF9397
:1039C000FF938091E10082FF0BC08091E20082FFB3
:1039D00007C08091E1008B7F8093E1000E942F1F40
:1039E0008091DA0080FF19C08091D80080FF15C057
:1039F0008091DA008E7F8093DA008091D90080FF79
:103A000096C080E189BD82E189BD09B400FEFDCF89
:103A100081E08093A6020E940D198091E10080FF51
:103A200019C08091E20080FF15C08091E2008E7F76
:103A30008093E2008091E20080618093E2008091B7
:103A4000D80080628093D80019BC85E08093A602DC
:103A50000E9424198091E10084FF2BC08091E20034
:103A600084FF27C080E189BD82E189BD89B5982F97
:103A7000917080FFFBCF8091D8008F7D8093D8001C
:103A80008091E1008F7E8093E1008091E2008F7E43
:103A90008093E2008091E20081608093E200809157
:103AA000A202882309F449C084E08093A6020E9400
:103AB0002D198091E10083FF29C08091E20083FFEE
:103AC00025C08091E100877F8093E10082E08093B0
:103AD000A6021092A2028091E1008E7F8093E10005
:103AE0008091E2008E7F8093E2008091E20080610D
:103AF0008093E20042E060E080E00E94D01B809171
:103B0000F00088608093F0000E941E19FF91EF91F1
:103B1000BF91AF919F918F917F916F915F914F91E5
:103B20003F912F910F900FBE0F901F90189519BCC9
:103B30001092A6020E941B1970CF8091E30087FDAE
:103B400093E09093A602B3CF1F920F920FB60F92FD
:103B500011242F933F934F935F936F937F938F9392
:103B60009F93AF93BF93CF93DF93EF93FF93D09146
:103B7000E900DF708091EC00C82FC17080FDC0E8C3
:103B80001092E9008091F000877F8093F000789494
:103B90000E94E81D1092E9008091F00088608093F7
:103BA000F000CD2BCF70C093E900FF91EF91DF9132
:103BB000CF91BF91AF919F918F917F916F915F91C5
:103BC0004F913F912F910F900FBE0F901F9018951E
:103BD000AAE2B0E0EEEEFDE10C94741F87EA92E0F9
:103BE0002091F100FC012193CF01F2E08F3A9F0771
:103BF000B9F70E944D198091E80083FF1EC18091A2
:103C0000A7029091A8029A3008F017C1E92FF0E0BE
:103C1000E15BFF4D0C945F1F803899F0823809F00A
:103C20000CC18091AB028F70873008F006C1809381
:103C3000E9008091EB0085FB882780F91092E9006C
:103C400006C08091A3029091A4029111826090918C
:103C5000E800977F9093E8008093F1001092F100C4
:103C60008091E8008E77E5C0882309F4D3C08230C4
:103C700009F0E3C08091A9028111D6C08091AB0206
:103C80008F702FEF280F263008F0D7C08093E900FF
:103C90002091EB0020FFC8C0933031F48091EB00FD
:103CA00080628093EB00C0C09091EB009061909394
:103CB000EB0021E030E001C0220F8A95EAF7209363
:103CC000EA001092EA008091EB008860EACF81114F
:103CD000B4C01091A9021F778091E3008078812BF6
:103CE0008093E3008091E800877F8093E8000E9442
:103CF000041C8091E80080FFFCCF8091E300806885
:103D00008093E30082E0111183E08093A60295C0C6
:103D10008058823008F091C08091A9029091AA0247
:103D20008C3D23E09207A1F583E08A838AE28983B0
:103D30004FB7F894DE01139620E03EE051E2E32F06
:103D4000F0E050935700E49120FF03C0E295EF703C
:103D50003F5FEF708E2F90E0EA30C0F0C7968D93F2
:103D60009D932F5F243159F74FBF8091E800877FE3
:103D70008093E8006AE270E0CE0101960E94131B76
:103D80008091E8008B778093E80057C0C096E7CF1A
:103D90006091AB027091AC02AE014F5F5F4F0E9429
:103DA0004E1ABC01892B09F448C09091E800977F16
:103DB0009093E80089819A810E94711BE1CF80383D
:103DC000E1F58091E800877F8093E8008091A2026E
:103DD0008093F10045CF811130C09091A9029230BB
:103DE00060F58091E800877F8093E8009093A202BD
:103DF0000E94041C8091A202882311F084E005C077
:103E00008091E30087FDFACF81E08093A6020E94B3
:103E1000381913C08091A902813079F481E0933080
:103E200009F080E08093A4021092E9008091E800FC
:103E3000877F8093E8000E94041C8091E80083FF44
:103E40000AC08091E800877F8093E8008091EB00B2
:103E500080628093EB00AA96E3E00C94901F089593
:103E6000CF938091A6028823A1F0C091E900CF7082
:103E70009091EC00892F817090FD80E8C82B109202
:103E8000E9008091E80083FD0E94E81DCF70C09397
:103E9000E900CF91089597FB072E16F4009407D000
:103EA00077FD09D00E949C1F07FC05D03EF4909539
:103EB00081959F4F0895709561957F4F0895EE0FFE
:103EC000FF1F0590F491E02D09942F923F924F929D
:103ED0005F926F927F928F929F92AF92BF92CF929A
:103EE000DF92EF92FF920F931F93CF93DF93CDB7A3
:103EF000DEB7CA1BDB0B0FB6F894DEBF0FBECDBF1B
:103F000009942A88398848885F846E847D848C84EB
:103F10009B84AA84B984C884DF80EE80FD800C81F4
:103F20001B81AA81B981CE0FD11D0FB6F894DEBFD7
:103F30000FBECDBFED010895AA1BBB1B51E107C009
:103F4000AA1FBB1FA617B70710F0A61BB70B881F29
:103F5000991F5A95A9F780959095BC01CD010895B8
:103F6000FB01DC0104C08D910190801921F44150C6
:103F70005040C8F7881B990B0895FB01DC0102C073
:103F800001900D9241505040D8F70895F999FECF15
:103F900092BD81BDF89A992780B50895A8E1B0E057
:103FA00042E050E00C940A20DC01A40FB51F415000
:103FB000504048F0CB01840F951F2E910E94E51FC1
:103FC00041505040D0F70895262FF999FECF92BD69
:103FD00081BDF89A019700B4021639F01FBA20BDCE
:103FE0000FB6F894FA9AF99A0FBE08950396272F00
:103FF0000E94E51F0E94E41F252F0E94E51F242F29
:104000000C94E51F0196272F0E94E51F0C94E41FD6
:10401000DC01CB01FC01F999FECF06C0F2BDE1BD88
:10402000F89A319600B40D9241505040B8F7089577
:10403000F894FFCF77047704B504B5041905350566
:10404000A604A6043A05AB05BA05BA050E128212FB
:104050001612E011E4111A12E8111E122A12F411BC
:104060007B12F8112E12FC1132125A120012361263
:10407000611206123C124412EC112212F0112612A7
:104080000A12401250126A127912DA1112128912AF
:1040900097159D1586159115A315A915AF150C1E1D
:1040A000341E1D1F341E1D1F671E881E1D1FDF1E90
:0240B000EB1E05
:1040B2002C024C02280850011E0A140100000100C3
:1040C200C317F718F018E918E218E200E900EA004D
:1040D200B500B600B700CD008301CC008A01920181
:1040E20094012102230224022502260227022A0227
:1040F200B300B4006F0070009F01CB019F02A002C9
:10410200818283E200E900EA00B500B600B700CD83
:10411200008301CC008A019201940121022302242E
:10412200022502260227022A02B300B4006F0070A1
:10413200009F01CB019F02A002818283F4F53534F6
:0C414200C697669490919293F633323643
:00000001FF
